:020000040800F2
:100000000050002021680008E5150008E7150008E9
:10001000E9150008EB150008ED15000800000000C8
:10002000000000000000000000000000A1510008D6
:10003000EF15000800000000415200087F4A000848
:10004000696800086968000869680008696800084C
:10005000696800086968000869680008696800083C
:10006000696800086968000869680008696800082C
:10007000696800086968000869680008F1150008E7
:10008000696800086968000869680008696800080C
:1000900069680008696800086968000869680008FC
:1000A00069680008696800086968000869680008EC
:1000B0006968000869680008051600086968000892
:1000C00069680008696800086968000869680008CC
:1000D0006968000815160008696800086968000862
:1000E0006968000869680008696800080000000085
:1000F0000000000000000000000000000000000000
:0C01000000000000000000005FF808F1A3
:100110000348044B834202D0034B03B11847704796
:10012000CC010020CC010020000000000548064959
:100130000B1AD90F01EBA301491002D0034B03B1F5
:1001400018477047CC010020CC01002000000000BF
:1001500010B5064C237843B9FFF7DAFF044B13B10F
:100160000448AFF300800123237010BDCC010020B0
:10017000000000006C68000808B5044B1BB104497E
:100180000448AFF30080BDE80840CFE7000000005E
:10019000D00100206C680008014B1868704700BF50
:1001A0000000002070B50D4E0D4D761BB61006D028
:1001B000002455F8043B01349847A642F9D1094E72
:1001C000094D06F053FB761BB61006D0002455F8F7
:1001D000043B01349847A642F9D170BDF06C000889
:1001E000F06C0008F46C0008F06C0008032A10B5ED
:1001F00016D940EA010C1CF0030F04460B4622D12D
:1002000019462046D1F800E0D0F800C00433F44588
:1002100004F1040417D1043A032A20461946EFD802
:10022000541EA2B100F1FF3C013901E0C3180CD00B
:100230001CF801EF11F8012FA4EB0C039645F5D043
:10024000AEEB020010BD541EECE7184610BD104680
:1002500010BD00BF844641EA000313F0030349D1F7
:10026000403A23D30B6803604B6843608B6883601C
:10027000CB68C3600B6903614B6943618B69836120
:10028000CB69C3610B6A03624B6A43628B6A836208
:10029000CB6AC3620B6B03634B6B43638B6B8363F0
:1002A000CB6BC36340304031403ADBD230320BD3AA
:1002B0000B6803604B6843608B688360CB68C360E6
:1002C00010301031103AF3D20C3205D351F8043B00
:1002D00040F8043B043AF9D2043208D0D2071CBFDC
:1002E00011F8013B00F8013B01D30B880380604605
:1002F000704700BF082A13D38B07B1D010F0030357
:10030000AED0C3F10403D21ADB071CBF11F8013BC6
:1003100000F8013BA4D331F8023B20F8023B9FE7F1
:10032000043AD9D3013A11F8013B00F8013BF9D264
:100330000B7803704B7843708B78837060467047FE
:10034000830730B548D0541E002A3FD00346CAB2B6
:1003500001E0013C3AD303F8012B9D07F9D1032CAE
:100360002DD9CDB245EA05250F2C45EA054536D9EC
:10037000A4F1100222F00F0C03F1200EE6444FEA24
:10038000121C03F1100242E9045542E902551032F1
:100390007245F8D10CF1010214F00C0F03EB0212BC
:1003A00004F00F0C13D0ACF1040323F00303043367
:1003B000134442F8045B9342FBD10CF003042CB1CC
:1003C000CAB21C4403F8012B9C42FBD130BD6446E9
:1003D0001346002CF4D1F9E703461446BFE71A464A
:1003E000A446E0E708B410B5002A04469DB031DB0E
:1003F0004FF402734FF6FF7CADF814300291069172
:1004000020AB15D0013A0492079202A91F9A0193DA
:10041000ADF816C000F046F9421C01DA8B232360C8
:100420000022029B1A701DB0BDE8104001B0704759
:100430000492079202A91F9A0193ADF816C000F02A
:1004400031F9431C01DA8B2323601DB0BDE8104055
:1004500001B070478B234FF0FF302360F5E700BFFA
:100460000CB410B51E4B00291C689CB033DB4FF454
:1004700002734FF6FF7CADF81430029006901FAB6C
:1004800016D001391E9A04910791204602A90193C2
:10049000ADF816C000F006F9421C01DA8B23236088
:1004A0000022029B1A701CB0BDE8104002B07047D9
:1004B0000491079120461E9A02A90193ADF816C037
:1004C00000F0F0F8431C01DA8B2323601CB0BDE878
:1004D000104002B070478B234FF0FF302360F5E7E8
:1004E000000000202DE9F0478F680C469F421D4612
:1004F000164638D88246888910F4906F0ED13D4652
:1005000008682A46314600F01BFC0020A2682368D8
:10051000D21B2B44A2602360BDE8F0874B690969B8
:1005200003EB4308236808EBD878A3EB01096B1CA5
:100530004FEA68084B444345424684BF98464246CA
:10054000430513D51146504600F0DCFC074608B3BE
:100550004A462169FFF77EFEA38923F4906343F0A6
:100560008003A38107E01F460868CAE7504600F0F1
:1005700025FD074650B107EB0900A8EB09032761E9
:10058000C4F814802F46A3602060BAE75046216962
:1005900000F052FC0C23CAF80030A3894FF0FF3062
:1005A00043F04003A381B7E72DE9F04F93689146EC
:1005B00083B0002B6ED0176880460C4608688D68A3
:1005C000083744E0B4F80CC01CF4906F2ED0D4E986
:1005D0000413451A03EB430303EBD373AA194FEA41
:1005E000630A531C5345524684BF9A4652461CF434
:1005F000806F36D01146404600F084FC00283AD087
:100600002A4621690190FFF725FEA289019B22F469
:10061000906242F08002A2815819AAEB0505A560FC
:10062000C4F814A03546B2462361206059465246AC
:1006300000F086FBD9F80830A16820684D1B5044B3
:100640009E1BA5602060C9F808601EB3083757E9F3
:1006500002B6002EFAD0B542AA46B3D93546B24604
:10066000E4E7404600F0AAFC03460028D4D1404607
:10067000216900F0E1FB0C2300224FF0FF30C8F8A5
:100680000030A38943F04003A381C9E9012203B0EC
:10069000BDE8F08F00231846C9F8043003B0BDE868
:1006A000F08F00BF2DE9F04F1C468B890F461D06C9
:1006B000804692469DB003D50B69002B00F0F38075
:1006C00000230993302320228DF82A309AF8003035
:1006D000039401257B4C8DF82920002B76D0D14640
:1006E00003E019F8013F002B79D0252BF9D1B9EBA4
:1006F0000A0B77D199F80020002A67D000234FF029
:10070000FF3209F10109CDE90523049307938DF820
:1007100053301A9304E0001B05FA00F018430490CC
:10072000CA460522204619F8011B00F0C1FA049BB5
:100730000028F0D1D80644BF20228DF85320190795
:1007400048BF2B229AF8001048BF8DF853202A2961
:1007500056D1039A11680432002903927EDB079177
:100760009AF801100AF1010A2E295BD0DFF858919E
:100770000322484600F09CFA48B14022049BA0EBBB
:10078000090002FA00F003430AF1010A04931AF87F
:10079000011B06224D488DF8281000F089FA002828
:1007A00062D04B4B002B52D003A900913A464046F1
:1007B000484B04A9AFF300800646721C06D0099B83
:1007C000334409939AF80030002B88D1BB895B062B
:1007D0004CBF4FF0FF3009981DB0BDE8F08FB9EB6A
:1007E0000A0BF3D05B46524639464046FFF77AFE85
:1007F0000130EBD0099B99F800205B4409937BE71B
:10080000A1F13002092AAFD8079B1AF8011F03EBA8
:10081000830302EB4303A1F13002092AF5D92E2903
:100820000793A3D19AF801102A2927D1039B0AF133
:1008300002001A680433002A0393B8BF4FF0FF3355
:100840009AF8021005928246B8BF05938EE7039B83
:10085000073323F0070308330393B0E7494243F01B
:100860000203079104937BE703A900913A464046AF
:10087000184B04A900F0C6F806469EE70023A1F134
:100880003002092A0AF1010A05933FF66FAF1AF800
:10089000011F03EB830302EB4303A1F13002092A9A
:1008A000F5D9059362E7402100F02CFB38603861F0
:1008B00010B140237B6103E70C234FF0FF30C8F8F1
:1008C000003089E7B46C0008BC6C0008C06C0008FC
:1008D00000000000E50400082DE9F04791461E469F
:1008E0000A698B680C469A42B8BF1A46C9F80020BC
:1008F00091F843300546DDF8208013B10132C9F884
:100900000020226891065DD5D9F800300233C9F87D
:100910000030226812F0060F11461ED1E168CB1A92
:10092000002BD8BF114618DD002704F1190A06E094
:10093000D9F80030E268A2EB030CBC450CDD0123C2
:10094000524631462846C047013007F10107EFD132
:100950004FF0FF30BDE8F087216894F84330003B4A
:1009600018BF01238A060AD53021E21882F8431005
:1009700094F845105A1C2244023382F84310314641
:10098000284604F14302C0470130E1D0236803F058
:100990000603042B1DD0A3682269934225DD00279E
:1009A0009B1A1F4404F11A09002401E0BC421CDA1E
:1009B00001234A4631462846C047013004F101046C
:1009C000F4D1C5E712F0060F12D0003B18BF012387
:1009D000D5E7D9F80030E1682269C91AA36821EA8D
:1009E000E1779342DCDC0029DCDC0020BDE8F08705
:1009F000E168D9F80030CB1A002BD8BF114693DC40
:100A0000ABE700BF2DE9F04317460A7E85B00C46E0
:100A1000064698460C9D01F1430C002A33D0A2F102
:100A20005803D9B2202967D8202B65D8DFE813F006
:100A3000DD0064006400640064006400640064001D
:100A4000640064006400A3006E006400640064003D
:100A500064006E00640064006400640021007F0094
:100A6000BF0064006400AE0064007F0064006400A6
:100A7000E40023681A0640F102812B686269191D9F
:100A800029601B681A600023E14623613B4621462A
:100A90003046CDF8008003AAFFF71EFF013020D0BA
:100AA0004A46394630462369C047013019D0236889
:100AB000E0689B07039919D5431A002B16DD002522
:100AC00004F1190904E0E0680399431AAB420DDD13
:100AD00001234A4639463046C047013005F1010539
:100AE000F1D14FF0FF3005B0BDE8F0838842B8BFC8
:100AF000084605B0BDE8F083012384F8422004F1E4
:100B000042092361002384F84330BFE723681906B4
:100B100002D45A0600F1BF8029680A6804312960AE
:100B20001146002A6ADB0A25DFF87CE110E0236821
:100B3000180640F19A802B68191D296019686F2AE0
:100B40000CBF08250A25DFF860E1002384F8433054
:100B50006268002AA2607DDB236823F0040323601F
:100B6000002959D1002A77D1E146082D63D0ACEB9A
:100B7000090323618AE701222B6804F142091968FD
:100B800004332B6084F842102261BBE72B680021FC
:100B90001A1D2A60D3F800906268484600F088F871
:100BA00000287FD0A0EB090060602061AAE72368DD
:100BB00043F0200323607822DFF8F0E084F845203A
:100BC0002A68111D2960190642D45D0640D5118896
:100BD000D80744BF43F020032360002943D1236892
:100BE000102523F020032360AFE75823DFF8B8E097
:100BF00084F845302368E3E72368DCE72D2284F896
:100C0000432062684942002AA26002DB23F0040309
:100C100023600A25DFF890E0E146B1FBF5F30A46D0
:100C200005FB131019461EF80030AA4209F8013DD1
:100C3000F3D2082D9BD12368D90798D56268236920
:100C40009A4294DC302309F1FF3989F800308EE7AD
:100C50001168BDE70029DFD19EF8003004F1420998
:100C600084F8423081E710256FE713F0400F2B68BE
:100C700003F1040129600CBF196819885FE713F0BC
:100C8000400F2B68626903F1040129601B6814BFDF
:100C90001A801A60F7E62A68B2F9001004322A6056
:100CA0000A463EE7606880E7C86C0008DC6C000814
:100CB0005FFA81FC810710D00346511E2AB90AE071
:100CC0009A0718460AD0013905D3184613F8012BA4
:100CD0006245F5D1704700207047114603290CD8B2
:100CE0000029F8D00346014401E08B42F3D01846B6
:100CF00013F8012B6245F8D1ECE7024610B54CEA37
:100D00000C2444EA04441046036804326340A3F10F
:100D1000013E2EEA030313F0803F04D10439032976
:100D20001046F0D851B10346014401E08B4205D092
:100D3000184613F8012B6245F8D110BD002010BDF4
:100D400088420DD98B1883420AD900EB020CBAB144
:100D5000624613F801CD994202F801CDF9D17047EE
:100D60000F2A0ED8034602F1FF3C4AB10CF1010CE8
:100D7000013B8C4411F8012B614503F8012FF9D197
:100D8000704740EA01039B074FD1A2F1100370B5F1
:100D900001F1200C23F00F0501F1100E00F11004F9
:100DA000AC441B095EF8105C0EF1100E44F8105CA8
:100DB0005EF81C5C103444F81C5C5EF8185C44F867
:100DC000185C5EF8145CE64544F8145CEAD1013323
:100DD00012F00C0F01EB031102F00F0400EB0313F0
:100DE00027D08E46043C24F003064FEA940C1E44A0
:100DF0001C1F5EF8045B44F8045FB442F9D10CF1A7
:100E0000010402F0030203EB840301EB840102F10D
:100E1000FF3C4AB10CF1010C013B8C4411F8012B51
:100E2000614503F8012FF9D170BD034602F1FF3C83
:100E30009CE72246EBE700BF002952D038B551F8B5
:100E4000043C0C1F002BB8BFE418054600F0F0F876
:100E50002B4A1368002B45D0A3420CD92168601897
:100E6000834228D0636028461460BDE8384000F013
:100E7000E1B8A3420FD81A465B68002BF9D111687C
:100E8000501884421DD034D3636054602846BDE8B6
:100E9000384000F0CFB811685018A04215D028D8BB
:100EA000216860188342EFD118685B680144C4E987
:100EB00000135460EAE718685B680144C4E9001352
:100EC000D1E7236819441160E0E720680144501815
:100ED00083421160DAD1D3E900030144C2E900136F
:100EE000D4E77047284663601460BDE8384000F0DE
:100EF000A1B80C2328462B60BDE8384000F09AB812
:100F0000E8010020F8B5CD1C25F0030508350C2DAF
:100F100038BF0C25002D064623DBA94221D8264FD9
:100F200000F086F83A6822B3144603E0636822466C
:100F3000FBB11C4623685B1BF8D40B2B15D86368E8
:100F400094420CBF3B605360304600F073F804F1EC
:100F50000B00231D20F00700C21A01D01B1AA3505A
:100F6000F8BD0C2300203360F8BD23601C442560CD
:100F7000EAE77968D1B12946304600F047F8431CCA
:100F800001460CD0C41C24F00304A04205D0304616
:100F9000611A00F03BF8013001D02560D4E70C2342
:100FA0003046336000F046F80020F8BD304600F0CF
:100FB0002DF87860DFE700BFE8010020F8B514469F
:100FC000F9B1CAB106460D4600F036F8A04202D388
:100FD0002F463846F8BD21463046FFF793FF0746B7
:100FE0000028F6D022462946FFF734F93046294634
:100FF000FFF722FF3846F8BD2746FFF71DFF3846AA
:10100000F8BD1146BDE8F840FFF77CBF002238B5B7
:10101000064D044608462A6004F0ECF9431C00D053
:1010200038BD2B68002BFBD0236038BDF0010020B9
:10103000704700BF704700BF51F8040C0028A0F1B2
:101040000400BCBF0B58C018704700BF08B5026849
:10105000034B9A4200D008BD00F0E0FCFBE700BF64
:101060000008004072B6FEE700B591B028220021CA
:1010700006A8FFF765F900230193029303930493F5
:101080000593012206924FF4803307930A920222BD
:101090000D920E934FF4E0130F9306A800F0E6FCB8
:1010A00080B90F23019302210291002303934FF48F
:1010B00080620492059301A800F00AFF20B911B0E4
:1010C0005DF804FBFFF7CEFFFFF7CCFF08B500F09B
:1010D00093FCFFF7C9FF00F00FF800F05BF900F098
:1010E000EFF900F071F904F0A9F903F0D5FC00F074
:1010F00013F903F0E3FCFEE72DE9F04188B000248A
:1011000004940594069407942B4B9A6942F01002BC
:101110009A619A6902F010020092009A9A6942F06C
:1011200020029A619A6902F020020192019A9A695A
:1011300042F004029A619A6902F004020292029A51
:101140009A6942F008029A619B6903F008030393CD
:10115000039BDFF8688022464FF40051404601F0BF
:10116000CAF8174E224647F2E031304601F0C3F884
:101170004FF4005304930125059506940227079721
:1011800004A9404600F09EFF4FF4E4430493059504
:101190000695079704A9304600F094FF4FF4F073CA
:1011A000049305950694079704A9304600F08AFF3A
:1011B00008B0BDE8F08100BF0010024000100140FF
:1011C000000C014000B583B001A804F041FE68B1F5
:1011D0009DF8053073B19DF80400431E032B03D81E
:1011E000DFE803F005050505002000E0002003B05E
:1011F0005DF804FB0020FAE700B585B004F0D8FDE7
:1012000004F0D8FD04F01EFE05F068F80BE00122A2
:10121000ADF80820039300231A4602A903F0BEFD8F
:101220000A2003F0C5FC002300936946012004F066
:1012300081FEFFF7C7FF0028F2D005F065F8009B9C
:10124000019301A9012004F075FE0028E8D0019B5C
:10125000009A9342E4D0024A10680028D7D1DFE711
:1012600004020020002838D000B585B00023009388
:101270000388012B06D00A2B1ED103798DF800308C
:10128000164B03E003798DF80030154B06228DF8DC
:1012900004201A0E8DF805201A0C8DF80620002265
:1012A0008DF80720DBB28DF8083005233AB101AA8A
:1012B000FF21042005F0ABF805B05DF804FB591CD4
:1012C00002F11000684410F8100C10336B4403F85E
:1012D0000C0C0132D2B28BB2E8E770470000311239
:1012E0000000341200B583B04FF0FF33002269468E
:1012F0000448006803F094FD0028F5D16846FFF724
:10130000B1FFF1E70402002008B505F03BF9052024
:1013100003F04EFCF9E7000008B5114803F056FC55
:10132000104B1860104A0821084603F0EBFC0F4BE5
:1013300018600F4A00210F4803F0DCFB0E4B1860C9
:101340000E4A00210E4803F0D5FB0E4B18600E4AE2
:1013500000210E4803F0CEFB0D4B186008BD00BF06
:1013600038690008000200204869000804020020D3
:10137000CC680008F9110008F40100201469000885
:10138000E5120008FC010020F068000809130008BD
:10139000F801002000B583B00A4B5A6942F00102FF
:1013A0005A615B6903F001030193019B002205214F
:1013B0000F2001F051F90F2001F086F903B05DF81C
:1013C00004FB00BF0010024008B50E480E4B03603E
:1013D0004FF48273436000238360C3600361436101
:1013E0004FF4007282611022C26103624362836221
:1013F0000A23C36201F076F900B908BDFFF732FE97
:10140000FBE700BF080200200030014000B587B0B4
:10141000002302930393049305930268124B9A42AC
:1014200002D007B05DF804FB03F560439A6942F40B
:1014300080529A619A6902F480520092009A9A69E5
:1014400042F004029A619B6903F004030193019B3B
:10145000A0230293022303930323059302A90348C5
:1014600000F030FEDDE700BF003001400008014021
:1014700010B5104B1B685C68A4B2C4F58074A4B2AC
:101480000D4B1B88A34207D007D2E11A0B48184422
:1014900004F0E8FF084B1C8010BDC3F580710748BD
:1014A000184404F0DFFF002CF4D02146034804F078
:1014B000D9FFEFE760020020EC030020EC020020DF
:1014C00008B51548154B03604FF4165343600023CD
:1014D0008360C36003610C2242618361C36101F0D8
:1014E0005AFA90B904F0B0FF0D4B00221A804FF465
:1014F00080720C49084801F08FFD48B9064B1A6804
:10150000D36843F01003D36008BDFFF7ABFDE9E7F4
:10151000FFF7A8FDF2E700BFA40200200038014059
:10152000EC030020EC02002070B586B0002302938B
:101530000393049305930268264B9A4201D006B0A8
:1015400070BD044603F558439A6942F480429A619B
:101550009A6902F480420092009A9A6942F0040269
:101560009A619B6903F004030193019B4FF400739C
:1015700002930223039303230593174E02A93046D7
:1015800000F0A0FD4FF480630293002503950495BD
:1015900002A9304600F096FD1048114B03604560EB
:1015A00085608023C3600561456120238361C56137
:1015B00000F0BEFE58B9094BE3635C6200220521CE
:1015C000252001F049F8252001F07EF8B7E7FFF764
:1015D00049FDF0E7003801400008014060020020AA
:1015E00058000240FEE7FEE7FEE7FEE7FEE7704731
:1015F00008B5034800F07CFFFFF73AFF08BD00BFC5
:101600006002002008B5024800F0D6F808BD00BF0F
:10161000F003002000B583B00C4B1B681A6812F071
:10162000100F03D0DA6812F0100F05D1074801F04F
:1016300001FB03B05DF804FB002201921A680192DD
:101640005B680193019BFFF713FFEFE7A402002003
:1016500000B583B0114B9A6942F001029A619A6910
:1016600002F001020092009ADA6942F08052DA61D7
:10167000DB6903F080530193019B00220F216FF07F
:10168000010000F0E9FF064A536823F0E06343F0ED
:101690000073536003B05DF804FB00BF001002400C
:1016A0000000014030B589B00446214BDA6942F0B0
:1016B0000402DA61DB6903F004030193019B02A9D0
:1016C00003A800F0E1FC069BCBB900F0BDFC03468B
:1016D0001848A0FB03239B0C013B1748174A0260E4
:1016E00040F2E732C260436000230361836083619C
:1016F00000F054F9054630B1284609B030BD00F07D
:10170000A3FC4300E4E70C4800F01EF8054600285F
:10171000F2D11E2000F0D8FF0F2C01D90125EBE7F4
:10172000002221461E2000F097FF054B1C60E3E7D6
:101730000010024083DE1B43F0030020000800403D
:10174000680000207047000090F83D30DBB2012BAC
:1017500027D1022380F83D300268D36843F00103AB
:10176000D3600368114A934210D0B3F1804F0DD07B
:10177000A2F59432934209D002F58062934205D0DB
:101780001A6842F001021A60002070479A6802F05D
:101790000702062A07D01A6842F001021A600020E8
:1017A0007047012070470020704700BF002C0140A7
:1017B000704770477047704770B504460368DE682D
:1017C0001D6915F0020F10D016F0020F0DD06FF04A
:1017D00002021A610123037703689B6913F0030F68
:1017E0005ED0FFF7E6FF0023237715F0040F12D039
:1017F00016F0040F0FD023686FF004021A61022361
:10180000237723689B6913F4407F4FD02046FFF76E
:10181000D0FF0023237715F0080F12D016F0080F21
:101820000FD023686FF008021A610423237723681E
:10183000DB6913F0030F40D02046FFF7BAFF002307
:10184000237715F0100F12D016F0100F0FD0236869
:101850006FF010021A61082323772368DB6913F401
:10186000407F31D02046FFF7A4FF0023237715F0F7
:10187000010F02D016F0010F2DD115F0800F02D00C
:1018800016F0800F2FD115F0400F02D016F0400F48
:1018900031D115F0200F02D016F0200F33D170BDDA
:1018A000FFF786FF2046FFF785FF9CE72046FFF7FE
:1018B0007FFF2046FFF77EFFABE72046FFF778FF6C
:1018C0002046FFF777FFBAE72046FFF771FF204673
:1018D000FFF770FFC9E723686FF001021A61204625
:1018E000FFF7B4FBC9E723686FF080021A61204656
:1018F00000F081F8C7E723686FF040021A612046C4
:10190000FFF759FFC5E723686FF020021A612046F0
:1019100000F070F8C3E7000003681F4A90420AD045
:10192000B0F1804F07D0A2F59432904203D002F577
:101930008062904203D123F070034A681343164A31
:1019400090420AD0B0F1804F07D0A2F59432904275
:1019500003D002F58062904203D123F44073CA6839
:10196000134323F080034A69134303608B68C36207
:101970000B688362084B98420AD0012343610369D4
:1019800013F0010F03D0036923F0010303617047D3
:101990000B690363F1E700BF002C014040B310B5B1
:1019A000044690F83D30F3B1022384F83D302146DF
:1019B00051F8040BFFF7B0FF012384F8463084F898
:1019C0003E3084F83F3084F8403084F8413084F869
:1019D000423084F8433084F8443084F8453084F849
:1019E0003D30002010BD80F83C30FFF7ABFEDBE758
:1019F000012070477047704708B5074A136843F0E5
:101A000010031360032000F015FE0F20FFF74AFEBD
:101A1000FFF71EFE002008BD00200240034A1168A7
:101A2000034B1B780B441360704700BF3804002041
:101A300064000020014B1868704700BF3804002084
:101A400082B0084B1B68084AA2FB03235B0A00FB19
:101A500003F3019300BF019B5A1E0192002BF9D1A1
:101A600002B070476C000020D34D6210002800F0D7
:101A7000F18170B582B00446036813F0010F2CD0D9
:101A8000994B5B6803F00C03042B1DD0964B5B68ED
:101A900003F00C03082B12D06368B3F5803F41D0EC
:101AA000002B55D103F1804303F504331A6822F467
:101AB00080321A601A6822F480221A6037E08A4B5A
:101AC0005B6813F4803FE7D0874B1B6813F4003F3B
:101AD00003D06368002B00F0BF81236813F0020F6E
:101AE00075D0814B5B6813F00C0F5FD07E4B5B6849
:101AF00003F00C03082B54D02369002B00F08A80DC
:101B00007A4B01221A60FFF795FF0546764B1B685A
:101B100013F0020F75D1FFF78DFF401B0228F5D996
:101B200003209EE1704A136843F4803313606368B6
:101B300043B3FFF77FFF05466B4B1B6813F4003F71
:101B4000CBD1FFF777FF401B6428F5D9032088E14C
:101B5000B3F5A02F09D0644B1A6822F480321A60C2
:101B60001A6822F480221A60E1E703F18043A3F5AA
:101B70003C331A6842F480221A601A6842F48032B8
:101B80001A60D4E7FFF756FF0546574B1B6813F45E
:101B9000003FA2D0FFF74EFF401B6428F5D9032079
:101BA0005FE1514B5B6813F4803FA5D14E4B1B683E
:101BB00013F0020F03D02369012B40F04F814A4AF2
:101BC000136823F0F803616943EAC10313602368D3
:101BD00013F0080F33D0A369002B5CD0434B0122D4
:101BE000C3F88024FFF726FF05463F4B5B6A13F0DE
:101BF000020F21D1FFF71EFF401B0228F5D9032059
:101C00002FE1394A136823F0F803616943EAC103FD
:101C10001360DCE7354B00221A60FFF70BFF054627
:101C2000314B1B6813F0020FD1D0FFF703FF401BAD
:101C30000228F5D9032014E10120FFF701FF2368F2
:101C400013F0040F00F09680274BDB6913F0805FE0
:101C500034D1254BDA6942F08052DA61DB6903F056
:101C600080530193019B0125214B1B6813F4807F56
:101C700026D0E368012B3DD0002B53D103F18043E4
:101C800003F504331A6A22F001021A621A6A22F07A
:101C900004021A6233E0154B0022C3F88024FFF7D8
:101CA000C9FE0546104B5B6A13F0020FC7D0FFF761
:101CB000C1FE401B0228F5D90320D2E00025D3E75E
:101CC0000B4A136843F480731360FFF7B3FE0646B4
:101CD000074B1B6813F4807FCBD1FFF7ABFE801B53
:101CE0006428F5D90320BCE0001002400000424205
:101CF000007000405F4A136A43F001031362E36817
:101D000033B3FFF797FE06465A4B1B6A13F0020FD8
:101D10002FD1FFF78FFE801B41F288339842F3D911
:101D200003209EE0052B09D0524B1A6A22F00102D3
:101D30001A621A6A22F004021A62E0E74D4B1A6A2C
:101D400042F004021A621A6A42F001021A62D6E7ED
:101D5000FFF770FE0646474B1B6A13F0020F08D0D0
:101D6000FFF768FE801B41F288339842F3D90320C5
:101D700077E0E5B9E369002B72D03E4A526802F081
:101D80000C02082A56D0022B17D03B4B00221A66B1
:101D9000FFF750FE0446374B1B6813F0007F47D017
:101DA000FFF748FE001B0228F5D9032059E0314A0D
:101DB000D36923F08053D361DCE72F4B00221A66EE
:101DC000FFF738FE05462B4B1B6813F0007F06D04B
:101DD000FFF730FE401B0228F5D9032041E0236ABB
:101DE000B3F5803F1AD023494B6823F47413226A59
:101DF000606A024313434B601F4B01221A66FFF7D0
:101E000019FE04461B4B1B6813F0007F0ED1FFF731
:101E100011FE001B0228F5D9032022E0154A536861
:101E200023F40033A1680B435360DCE7002018E083
:101E3000002016E0012B16D00E4B5B6803F48031B6
:101E4000226A914211D103F47013626A93420ED157
:101E5000002006E001207047012002E0012000E0A0
:101E6000002002B070BD0120FBE70120F9E701204E
:101E7000F7E700BF00100240000042420F4B5B68D2
:101E800003F00C02082A01D00D487047C3F38342C7
:101E90000C49885C13F4803F0BD0084B5B68C3F39C
:101EA0004043094AD35C064A02FB00F0B0FBF3F062
:101EB0007047064B03FB00F0704700BF0010024064
:101EC00000127A00606900087069000800093D008E
:101ED000002800F0A08070B50D460446524B1B68E8
:101EE00003F007038B420BD24F4A136823F007031A
:101EF0000B431360136803F007038B4240F08D809F
:101F0000236813F0020F17D013F0040F04D0474AD0
:101F1000536843F4E0635360236813F0080F04D060
:101F2000424A536843F460535360404A536823F075
:101F3000F003A1680B435360236813F0010F31D005
:101F40006368012B20D0022B25D0384A126812F08A
:101F5000020F64D035494A6822F0030213434B60F4
:101F6000FFF768FD0646314B5B6803F00C036268BF
:101F7000B3EB820F16D0FFF75DFD801B41F2883373
:101F80009842F0D9032045E0284A126812F4003F35
:101F9000E0D101203EE0254A126812F0007FD9D13D
:101FA000012037E0204B1B6803F00703AB420AD93E
:101FB0001D4A136823F007032B431360136803F0D3
:101FC0000703AB422DD1236813F0040F06D0174A44
:101FD000536823F4E063E1680B435360236813F014
:101FE000080F07D0114A536823F46053216943EA6C
:101FF000C1035360FFF742FF0C4B5B68C3F303134D
:102000000B4AD35CD8400B4B18600B4B1868FFF79A
:1020100049FB002070BD012070470120FAE7012034
:10202000F8E70120F6E700BF002002400010024060
:10203000746900086C00002068000020014B1868DB
:10204000704700BF6C00002008B5FFF7F7FF044B96
:102050005B68C3F30223034AD35CD84008BD00BFCA
:10206000001002408469000808B5FFF7E7FF044B41
:102070005B68C3F3C223034AD35CD84008BD00BFEA
:1020800000100240846900080F2303600B4B5A685C
:1020900002F0030242605A6802F0F00282605A685D
:1020A00002F4E062C2605B68DB0803F4E063036192
:1020B000034B1B6803F007030B60704700100240DE
:1020C0000020024070B582B00024A446A6E0804DF6
:1020D000AA4210D007D97F4DAA420CD005F5803511
:1020E000AA4208D013E0A5F58015AA4203D005F551
:1020F0007025AA4207D18A68002A58D0012A51D0F7
:102100004361082403E0A5F58015AA42F3D0BEF18F
:10211000FF0F4ED80646BEF1FF0F4CD84FEA8C0297
:1021200033680F25954023EA050304FA02F21343AE
:1021300033604B6813F0805F6ED0674B9A6942F052
:1021400001029A619B6903F001030193019B4FEA2D
:102150009C02951C614B53F825600CF003039D0015
:102160000F23AB4026EA03065D4B984229D003F5C6
:102170008063984200F08E8003F58063984200F0FF
:102180008B8003F58063984219D004231AE0CC6851
:10219000BDE7CC680434BAE7CC680834B7E7CC684C
:1021A0000C34B4E703610824B1E70024AFE704244A
:1021B000ADE7061DAFE7ACF108029200B0E70323DC
:1021C00000E00023AB4033430232444D45F8223057
:1021D0004B6813F4801F61D0424A936843EA0E03B0
:1021E00093604B6813F4001F5ED03E4AD36843EA05
:1021F0000E03D3604B6813F4003F5BD0394A536839
:1022000043EA0E0353604B6813F4803F58D0354ABD
:10221000136843EA0E0313600CF1010C0A6832FAEA
:102220000CF353D0012303FA0CF302EA030E33EA52
:102230000202F1D14A68122A3FF649AF122A3FF64C
:1022400066AF01A555F822F0F72000088F2100089D
:1022500099210008AB2100080F2100080F21000878
:102260000F2100080F2100080F2100080F2100088E
:102270000F2100080F2100080F2100080F2100087E
:102280000F2100080F2100080F21000893210008EA
:102290009F210008012395E7022393E7114A9368E1
:1022A00023EA0E0393609CE70E4AD36823EA0E03E9
:1022B000D3609FE70B4A536823EA0E035360A2E7FB
:1022C000084A136823EA0E031360A5E702B070BD45
:1022D00000002210000031100010024000000140F8
:1022E00000080140000401408368194201D0012028
:1022F0007047002070470AB101617047090401610D
:10230000704730B40124056CAC40C56B6C60046848
:1023100063604368102B05D0036899600368DA6036
:1023200030BC704703689A600368D960F8E7000022
:1023300060B310B402460168154B0B441548A0FB6E
:1023400003031B099B001364134BD363022382F81E
:102350002130086820F47F5020F0300053689468E2
:102360002343D46823431469234354692343946962
:102370002343D469234303430B600020906301236C
:1023800082F8213082F8200010BC7047012070478D
:10239000F8FFFDBFCDCCCCCC0000024038B50446E0
:1023A00090F82000012832D0012084F8200094F811
:1023B0002100C0B2012804D0002384F8203002207C
:1023C00038BD022084F821000020A0632568286819
:1023D00020F0010028602046FFF793FFE36A5BB11D
:1023E0002268136843F00E0313602268136843F0F9
:1023F000010313600020E3E72268136823F004035D
:1024000013602268136843F00A031360EDE70220AB
:10241000D6E790F82130DBB2022B06D00423836389
:10242000002380F82030012070470268136823F0F1
:102430000E0313600268136823F001031360036C3A
:10244000C16B012202FA03F34B6080F821200023C4
:1024500080F820301846704708B590F82130DBB27C
:10246000022B03D004238363012008BD0268136894
:1024700023F00E0313600268136823F00103136056
:102480000368194A934214D0143293421FD0143275
:1024900093421ED0143293421ED0143293421ED067
:1024A0001432934202D04FF0807203E04FF4801256
:1024B00000E001220D4B5A60012380F821300023F7
:1024C00080F82030436B6BB198470020CDE7102295
:1024D000F0E74FF48072EDE74FF48052EAE74FF4F3
:1024E0008032E7E70020C0E7080002400000024019
:1024F00038B5C36B1A6804682568016C04238B40E7
:10250000134235D015F0040F32D0236813F0200F9A
:1025100003D1236823F0040323600368434A9342F2
:1025200014D01432934218D01432934217D014327C
:10253000934217D01432934217D01432934202D0F0
:102540004FF0806203E04FF4800200E00422384B39
:102550005A60C36A03B1984738BD4022F7E74FF489
:102560008062F4E74FF48042F1E74FF48022EEE717
:1025700002238B4013423CD015F0020F39D0236860
:1025800013F0200F06D1236823F00A0323600123F0
:1025900080F821300368254A934214D014329342C4
:1025A0001CD0143293421BD0143293421BD01432ED
:1025B00093421BD01432934202D04FF0007203E0DA
:1025C0004FF4001200E00222194B5A60002380F8F9
:1025D0002030836A002BBFD09847BDE72022F3E765
:1025E0004FF40072F0E74FF40052EDE74FF4003281
:1025F000EAE7082303FA01F11142ADD015F0080F04
:10260000AAD0236823F00E032360026CC16B012360
:1026100003FA02F24A60836380F82130002380F8D5
:102620002030036B002B97D0984795E708000240B5
:1026300000000240074AD36823F4E0631B041B0C2C
:10264000000200F4E060034343F0BF6343F400334F
:10265000D360704700ED00E000B5194BDB68C3F3B1
:102660000223C3F1070CBCF1040F28BF4FF0040C88
:1026700003F1040EBEF1060F18D9033B4FF0FF3EE5
:102680000EFA0CFC21EA0C0199400EFA03F322EA3F
:102690000303194300280BDB0901C9B200F16040B4
:1026A00000F5614080F800135DF804FB0023E5E7C6
:1026B00000F00F000901C9B2024B1954F4E700BF42
:1026C00000ED00E014ED00E0002807DB00F01F0241
:1026D000400901239340024A42F82030704700BF6E
:1026E00000E100E0002856D010B50446436A33B933
:1026F0004368B3F5827F05D00023C36102E0002365
:10270000036143610023A36294F85130002B3CD055
:10271000022384F851302268136823F040031360C9
:10272000636803F48273A26802F404421343E2680C
:1027300002F400621343226902F002021343626949
:1027400002F001021343A26902F400721343E2692A
:1027500002F038021343226A02F080021343A26A95
:1027600002F40052216813430B60638B226803F06C
:10277000040353602268D36923F40063D36100200B
:102780006065012384F8513010BD84F85030204634
:10279000FEF73CFEBCE701207047026802F10C0323
:1027A00053E8003F23F0C0030C3242E80031002917
:1027B000F3D1202380F841307047026802F10C0306
:1027C00053E8003F23F490730C3242E800310029B3
:1027D000F3D1026802F1140353E8003F23F0010330
:1027E000143242E800310029F3D1036B012B05D0EC
:1027F000202380F84230002303637047026802F10F
:102800000C0353E8003F23F010030C3242E8003180
:102810000029F3D1ECE790F84130DBB2212B01D055
:10282000022070478368B3F5805F17D0036A5A1C93
:1028300002621A7803685A60C38C9BB2013B9BB258
:10284000C3844BB90268D36823F08003D360026865
:10285000D36843F04003D360002070470369002B26
:10286000E4D1036A1B880268C3F308035360036A58
:1028700002330362E0E7000010B504460268136902
:1028800023F44053C1680B43136183680269134307
:1028900042691A430168CB6823F4B05323F00C0358
:1028A0001343CB600268536923F4407381690B437F
:1028B00053610268134B9A4220D0FFF7C5FB0246D2
:1028C00002EB820202EB820263689B00B2FBF3F22E
:1028D0000D48A0FB02314909642303FB11231B01AE
:1028E0003233A0FB03235B0903F0F00202EB011279
:1028F00003F00F03216813448B6010BDFFF7B4FB96
:102900000246DDE7003801401F85EB512DE9F04319
:1029100083B005460E4617469946DDF828802C6898
:10292000246836EA04030CBF4FF0010C4FF0000C92
:10293000BC4528D1B8F1FF3FF1D0FFF77BF8A0EB01
:102940000900404523D8B8F1000F22D02B68DA687F
:1029500012F0040FE3D0802EE1D0402EDFD01A68B1
:1029600012F0080FDBD0002401941A6801925B6812
:102970000193019B2846FFF720FF08236B6485F82D
:102980004040012000E0002003B0BDE8F0830320B8
:10299000FAE70320F8E760B310B5044690F8413039
:1029A00013B3242384F841302268D36823F40053FE
:1029B000D3602046FFF760FF2268136923F4904339
:1029C00013612268536923F02A0353612268D36894
:1029D00043F40053D36000206064202384F8413026
:1029E00084F84230606310BD80F84030FEF79CFDF3
:1029F000D7E7012070472DE9F04182B01E4690F8DC
:102A00004130DBB2202B56D104460D4690460029BA
:102A100055D00AB901204FE000234364212380F8F8
:102A20004130FFF707F80746A4F82480A4F8268071
:102A3000A368B3F5805F02D04FF0000814E023696B
:102A40002BB34FF000080FE0202384F8413003201F
:102A500032E038F8023B2268C3F308035360E28C8B
:102A600092B2013A92B2E284E38C9BB293B10096A7
:102A70003B46002280212046FFF748FF0028E3D193
:102A8000002DE6D015F8012B23685A60E7E7A84629
:102A90000025E9E700963B46002240212046FFF74B
:102AA00035FF18B9202384F8413005E0202384F84D
:102AB0004130032000E0022002B0BDE8F081012097
:102AC000FAE7704708B50168CA6822F04002CA6098
:102AD000202280F84120FFF7F4FF002008BD704756
:102AE0007047704710B5446A23685A6994F84130BA
:102AF000DBB2212B10D023685A6902F0400294F80F
:102B00004230DBB2222B11D0636C43F010036364BC
:102B10002046FFF7E6FF10BD02F08002002AEAD04F
:102B20000023E3842046FFF738FEE4E7002AEBD0D9
:102B30000023E3852046FFF740FEE5E708B5406A3D
:102B40000023C385C384FFF7CCFF08BD704790F80E
:102B50004230DBB2222B69D18368B3F5805F4FD05E
:102B6000826AB3F5805F04D0002B56D10369002B35
:102B700053D103685B681370836A01338362C38D2A
:102B80009BB2013B9BB2C385002B51D100B583B0F2
:102B90000268D36823F02003D3600268D36823F46B
:102BA0008073D3600268536923F0010353612023CB
:102BB00080F8423000234363036B012B33D10023A1
:102BC0000363026802F10C0353E8003F23F0100393
:102BD0000C3242E800310029F3D103681A6812F080
:102BE000100F06D0002201921A6801925B680193CF
:102BF000019B818DFFF7AAFF002003B05DF804FB65
:102C00000269002AACD1826A03685B68C3F30803D7
:102C10001380836A02338362B1E703685B6803F061
:102C20007F031370A8E7FFF75AFFE5E7022070471C
:102C30000020704730B583B0044602681368D0683E
:102C4000516913F00F0505D113F0200F02D010F0D9
:102C5000200F19D12DB111F0010119D110F4907F7D
:102C600016D1216B01297DD013F0800F03D010F015
:102C7000800F40F0188113F0400F03D010F0400F88
:102C800040F0158103B030BD2046FFF760FFF9E743
:102C900013F0010F06D010F4807F03D0626C42F075
:102CA0000102626413F0040F04D019B1626C42F0A7
:102CB0000202626413F0020F04D019B1626C42F098
:102CC0000402626413F0080F07D010F0200F00D147
:102CD00019B1626C42F008026264626C002AD1D0C1
:102CE00013F0200F02D010F0200F29D123685B6968
:102CF00003F04003626C12F0080F00D163B320466A
:102D0000FFF75BFD23685B6913F0400F20D022685A
:102D100002F1140353E8003F23F04003143242E869
:102D200000310029F3D1E36B73B1634A5A63E06B5E
:102D3000FFF792FB0028A5D0E06B436B9847A1E713
:102D40002046FFF704FFD1E72046FFF7CAFE99E7C8
:102D50002046FFF7C6FE95E72046FFF7C2FE002398
:102D600063648FE713F0100F3FF47EAF10F0100F85
:102D70003FF47AAF002301931368019353680193E2
:102D8000019B536913F0400F51D0E26B13685B68ED
:102D90009BB2002B3FF476AFA18D99427FF672AFC4
:102DA000E3859369202B37D0226802F10C0353E8A6
:102DB000003F23F480730C3242E800310029F3D144
:102DC000226802F1140353E8003F23F00103143298
:102DD00042E800310029F3D1226802F1140353E8DC
:102DE000003F23F04003143242E800310029F3D1C0
:102DF000202384F8423000232363226802F10C036D
:102E000053E8003F23F010030C3242E80031002960
:102E1000F3D1E06BFFF7FDFA02236363A18DE38D2D
:102E20009BB2C91A89B22046FFF790FE2AE7A18D0E
:102E3000E38D9BB2C91A89B2E38D9BB2002B3FF49C
:102E400021AF00293FF41EAF226802F10C0353E8C2
:102E5000003F23F490730C3242E800300028F3D195
:102E6000226802F1140353E8003F23F001031432F7
:102E700042E800300028F3D1202384F842300023B8
:102E80002363226802F10C0353E8003F23F0100390
:102E90000C3242E800300028F3D10223636320465D
:102EA000FFF754FEEEE62046FFF7B5FCEAE62046C3
:102EB000FFF708FEE6E600BF3D2B000808B5406AB4
:102EC00001234363036B012B02D0FFF709FE08BD0A
:102ED000818D4908FFF73AFEF9E708B50346406AD5
:102EE0001B681B6813F0200F2BD10023C3850268D9
:102EF00002F10C0353E8003F23F480730C3242E8E4
:102F000000310029F3D1026802F1140353E8003FB5
:102F100023F00103143242E800310029F3D10268A2
:102F200002F1140353E8003F23F04003143242E857
:102F300000310029F3D1202380F84230036B012BAC
:102F400007D000234363036B012B0FD0FFF7C7FDAE
:102F500008BD026802F10C0353E8003F23F01003A0
:102F60000C3242E800310029F3D1EAE7818DFFF706
:102F7000EDFDEDE730B583B00446134681628285EE
:102F800000254564222280F84220C26B1F489062CF
:102F9000E26B1F48D062E26B1E481063E26B556320
:102FA00020680A46011DE06BFFF7F8F901952368D8
:102FB0001A6801925B680193019B23695BB12268E7
:102FC00002F10C0353E8003F43F480730C3242E8F3
:102FD00000310029F3D1226802F1140353E8003FC5
:102FE00043F00103143242E800310029F3D1226892
:102FF00002F1140353E8003F43F04003143242E867
:1030000000310029F3D1002003B030BDDB2E0008D1
:10301000BD2E0008E52A000808B590F84230DBB262
:10302000202B08D149B10AB9012008BD0023036350
:10303000FFF7A0FFF9E70220F7E70120F5E7704767
:1030400000F1080343604FF0FF328260C360036108
:1030500000230360704700230361704743684B609F
:103060009A688A605160996008610368013303605F
:10307000704730B40D68B5F1FF3F11D000F108037F
:103080001C465B681A68AA42FAD963684B6099606B
:103090008C606160086103680133036030BC704775
:1030A0000469F2E70369416882688A604168516097
:1030B0005A68824206D0002202611A68013A1A60F8
:1030C0001868704782685A60F5E70346406A18B18D
:1030D0001B6B1868C0F13800704710B5044602F049
:1030E00071F8A26BE36B9A4204D0002402F08CF8D2
:1030F000204610BD0124F9E710B5044602F062F83D
:10310000A36B23B9012402F07FF8204610BD0024F0
:10311000F9E770B504461546866B026C5AB9036828
:103120001BB100200136A66370BD806801F0D8F99C
:103130000023A360F6E76DB94068FDF78BF8226CB9
:10314000636813446360A268934219D32368636081
:103150002846E7E7C068FDF77DF8226C5142E36836
:103160009B1AE3602268934202D2A3680B44E36097
:10317000022D01D00020D5E726B1013E0020D1E785
:103180002846CFE70020CDE708B50346026C62B1C0
:103190000846D9681144D960D3F808C0614501D305
:1031A0001968D960D968FDF755F808BD38B50546E6
:1031B00002F008F895F8454064B201E0013C64B2C1
:1031C000002C0ADD6B6A43B105F1240001F08CF894
:1031D0000028F3D001F01CF9F0E7FF2385F8453013
:1031E00002F012F801F0EEFF95F8444064B201E0FD
:1031F000013C64B2002C0ADD2B6943B105F11000DB
:1032000001F072F80028F3D001F002F9F0E7FF2393
:1032100085F8443001F0F8FF38BD38B5E0B10D460F
:10322000044601F0CFFF2368E26B216C01FB023002
:10323000A0600020A0636360013A02FB0133E360F9
:10324000FF2384F8443084F84530FDB9236963B91D
:1032500001F0DAFF012038BD4FF0500383F31188ED
:10326000BFF36F8FBFF34F8FFEE704F1100001F043
:103270003BF80028ECD04FF0E0234FF08052C3F829
:10328000042DBFF34F8FBFF36F8FE1E704F1100000
:10329000FFF7D6FE04F12400FFF7D2FED8E738B5D9
:1032A0001D46049C0B4649B92460E0632364012158
:1032B0002046FFF7B2FF84F84C5038BD2260F4E797
:1032C00040B94FF0500383F31188BFF36F8FBFF302
:1032D0004F8FFEE710B584B01C46844653B192B1BF
:1032E00089B94FF0500383F31188BFF36F8FBFF399
:1032F0004F8FFEE74FF0500383F31188BFF36F8FBA
:10330000BFF34F8FFEE76AB150230393039B502B0B
:1033100013D04FF0500383F31188BFF36F8FBFF3C7
:103320004F8FFEE70029EFD04FF0500383F3118851
:10333000BFF36F8FBFF34F8FFEE7039B012384F82A
:10334000463000949DF818306046FFF7A8FF2046ED
:1033500004B010BD40B94FF0500383F31188BFF3A0
:103360006F8FBFF34F8FFEE7F0B583B00D46144665
:10337000064601FB00F0503001F00EFE074650B14A
:10338000002380F846300090234600F15002294681
:103390003046FFF784FF384603B0F0BDF0B585B086
:1033A000019288B10F461D460446B1B1022D20D1CD
:1033B000E36B012B1DD04FF0500383F31188BFF353
:1033C0006F8FBFF34F8FFEE74FF0500383F31188E9
:1033D000BFF36F8FBFF34F8FFEE7036C002BE5D079
:1033E0004FF0500383F31188BFF36F8FBFF34F8FFC
:1033F000FEE701F019F8064658B9019B002B48D0AA
:103400004FF0500383F31188BFF36F8FBFF34F8FDB
:10341000FEE700263DE02A4639462046FFF779FEC2
:10342000636A7BB948B14FF0E0234FF08052C3F894
:10343000042DBFF34F8FBFF36F8F01F0E5FE012026
:1034400005B0F0BD04F1240000F04EFF0028F4D0D8
:103450004FF0E0234FF08052C3F8042DBFF34F8F9D
:10346000BFF36F8FE9E701F0CFFE0020E8E702A885
:1034700000F080FF012619E0002384F8443021E0A9
:10348000002384F8453023E02046FFF78FFE00F04C
:103490000BFE01F097FEA26BE36B9A42BBD3022DA9
:1034A000B9D0019B002BDED0002EE0D001F0ACFEA5
:1034B00000F060FD01F086FE94F8442052B2B2F1B3
:1034C000FF3FD9D094F8452052B2B2F1FF3FD7D098
:1034D00001F09AFE01A902A800F058FFD8B92046D1
:1034E000FFF7FBFD0028CFD0019904F1100000F098
:1034F000C7FE2046FFF75AFE00F0D6FD0028C8D1CF
:103500004FF0E0234FF08052C3F8042DBFF34F8FEC
:10351000BFF36F8FBDE72046FFF748FE00F0C4FD04
:1035200000208DE748B108B5002181600160C160CD
:103530000B460A46FFF732FF08BD704710B502463A
:1035400000210120FFF706FF0446FFF7EBFF2046AE
:1035500010BD10B582B00B4600900022114601202C
:10356000FFF7AEFE0446FFF7DDFF204602B010BDB8
:1035700038B538B10446856800F050FF85420AD05E
:10358000002038BD4FF0500383F31188BFF36F8FD5
:10359000BFF34F8FFEE7E368013BE3600BB101200F
:1035A000EFE71A4619462046FFF7F8FE0120E8E744
:1035B0002DE9F84390B10F4616461C460546B1B1B9
:1035C000022C20D1EB6B012B1DD04FF0500383F365
:1035D0001188BFF36F8FBFF34F8FFEE74FF050039B
:1035E00083F31188BFF36F8FBFF34F8FFEE7036C38
:1035F000002BE5D04FF0500383F31188BFF36F8F9A
:10360000BFF34F8FFEE701F0C7FEEFF311894FF0D4
:10361000500383F31188BFF36F8FBFF34F8FAA6BF3
:10362000EB6B9A4206D3022C04D0002089F3118858
:10363000BDE8F88395F845804FFA88F8AB6B2246D1
:1036400039462846FFF765FDB8F1FF3F06D008F17F
:1036500001035BB285F845300120E7E76B6A0BB9DF
:103660000120E3E705F1240000F03EFE18B126B189
:1036700001203060DAE70120D8E70120D6E7F0B575
:1036800085B0019290B10F460446C1B100F0CCFE66
:10369000064600BB019B002B5ED04FF0500383F326
:1036A0001188BFF36F8FBFF34F8FFEE74FF05003CA
:1036B00083F31188BFF36F8FBFF34F8FFEE7036C67
:1036C000002BE3D04FF0500383F31188BFF36F8FCB
:1036D000BFF34F8FFEE700263EE039462046FFF756
:1036E00053FD013DA563236923B901F08DFD012040
:1036F00005B0F0BD04F1100000F0F6FD0028F4D094
:103700004FF0E0234FF08052C3F8042DBFF34F8FEA
:10371000BFF36F8FE9E701F077FD0020E8E702A82B
:1037200000F028FE012621E0002384F8443029E03F
:10373000002384F845302BE02046FFF737FD00F0EA
:10374000B3FC09E02046FFF731FD00F0ADFC204658
:10375000FFF7D2FC00283FD101F034FDA56B002D0E
:10376000BBD1019B002BD6D0002ED8D001F04CFD50
:1037700000F000FC01F026FD94F844305BB2B3F198
:10378000FF3FD1D094F845305BB2B3F1FF3FCFD0CB
:1037900001F03AFD01A902A800F0F8FD0028D1D1FE
:1037A0002046FFF7A9FC0028C6D0019904F12400A7
:1037B00000F066FD2046FFF7F9FC00F075FC0028DC
:1037C000CAD14FF0E0234FF08052C3F8042DBFF36D
:1037D0004F8FBFF36F8FBFE7002089E770B584B0CC
:1037E000019158B10446036C8BB14FF0500383F341
:1037F0001188BFF36F8FBFF34F8FFEE74FF0500379
:1038000083F31188BFF36F8FBFF34F8FFEE700F094
:103810000BFE054650B9019B5BB14FF0500383F39B
:103820001188BFF36F8FBFF34F8FFEE70026354639
:1038300055E0064653E0013BA36323683BB123698F
:103840004BB901F0E1FC0126304604B070BD00F038
:10385000DFFEA060F3E704F1100000F045FD002852
:10386000EFD04FF0E0234FF08052C3F8042DBFF3A8
:103870004F8FBFF36F8FE4E746B14FF0500383F3F0
:103880001188BFF36F8FBFF34F8FFEE701F0BCFCD1
:10389000DAE702A800F06EFD01252AE0002384F893
:1038A000443032E0002384F8453034E001F08AFCF3
:1038B000A06800F0C9FD064601F0A6FC3BE02046EA
:1038C000FFF774FC00F0F0FB09E02046FFF76EFC08
:1038D00000F0EAFB2046FFF70FFC002842D101F080
:1038E00071FCA36B002BA6D1019B002BC4D0002D33
:1038F000CFD001F089FC00F03DFB01F063FC94F8AF
:1039000044305BB2B3F1FF3FC8D094F845305BB2AE
:10391000B3F1FF3FC6D001F077FC01A902A800F087
:1039200035FD0028D1D12046FFF7E6FB0028C6D0A0
:103930002368002BBAD0019904F1240000F0A0FC08
:103940002046FFF733FC00F0AFFB0028C7D14FF053
:10395000E0234FF08052C3F8042DBFF34F8FBFF325
:103960006F8FBCE70EB900266EE701F02BFC2046F6
:10397000FFF7ABFB0146A06800F0FAFD01F044FC44
:10398000F1E780B170B50C460546866800F046FD4B
:10399000864211D021462846FFF720FF80B1EB6810
:1039A0000133EB600CE04FF0500383F31188BFF359
:1039B0006F8FBFF34F8FFEE7EB680133EB600120A1
:1039C00070BD2DE9F843B0B10D4616460446D9B195
:1039D00001F0E2FCEFF311884FF0500383F31188FC
:1039E000BFF36F8FBFF34F8FA76BCFB9002088F362
:1039F0001188BDE8F8834FF0500383F31188BFF3BB
:103A00006F8FBFF34F8FFEE7036C002BE0D04FF0BA
:103A1000500383F31188BFF36F8FBFF34F8FFEE71F
:103A200094F844904FFA89F929462046FFF7ACFBF9
:103A3000013FA763B9F1FF3F06D009F101035BB273
:103A400084F844300120D2E723690BB90120CEE786
:103A500004F1100000F048FC18B126B101203060DC
:103A6000C5E70120C3E70120C1E700000023072BC1
:103A70000CD8074A52F833200AB10133F7E7044A59
:103A800042F8331002EBC30358607047704700BF21
:103A90003C04002070B504460D46164601F092FB2A
:103AA00094F844305BB2B3F1FF3F0DD094F8453049
:103AB0005BB2B3F1FF3F0BD001F0A6FBA36B5BB190
:103AC0002046FFF773FB70BD002384F84430EDE718
:103AD000002384F84530EFE73246294604F12400FC
:103AE00000F0E6FBECE70000084B1B681B6823B9FD
:103AF000074B4FF0FF321A607047044B1B68DB68BE
:103B0000DB685A68024B1A60704700BF80040020CF
:103B1000280900202DE9F04780460D4617469946B2
:103B2000089EDDF824A00A9C9200A521206BFCF7DA
:103B300007FC236B07F18042013A03EB820727F071
:103B40000707B5B34FF0000CBCF10F0F0BD815F8F9
:103B50000C2004EB0C0383F8342015F80C3013B15F
:103B60000CF1010CF0E7002384F84330372E00D924
:103B70003726E662E66400252565201DFFF76BFA0F
:103B800004F11800FFF767FA2461C6F13806A66150
:103B90006462656584F858504A464146384601F0EB
:103BA000E7FA2060BAF1000F01D0CAF80040BDE882
:103BB000F087002384F83430D8E7000038B50024BB
:103BC00007E004EB840293000E481844FFF738FA2C
:103BD0000134372CF5D90C4D2846FFF731FA0B4C40
:103BE0002046FFF72DFA0A48FFF72AFA0948FFF79F
:103BF00027FA0948FFF724FA084B1D60084B1C60A0
:103C000038BD00BF88040020FC08002010090020F7
:103C100034090020600900204C09002080040020A5
:103C20008404002010B5044601F0CCFA224A13683F
:103C300001331360214B1B685BB1214B1B686BB9CF
:103C40001E4B1B68DA6AE36A9A4207D81B4B1C605A
:103C500004E01A4B1C601368012B29D0194A136821
:103C6000013313606364E06A174B1B68984201D903
:103C7000154B186000EB8000211D144B03EB8000F6
:103C8000FFF7ECF901F0C0FA0D4B1B687BB10B4B51
:103C90001B68DA6AE36A9A4209D24FF0E0234FF0D8
:103CA0008052C3F8042DBFF34F8FBFF36F8F10BD49
:103CB000FFF784FFD2E700BFE80800207C04002063
:103CC00048090020F4080020F8080020880400209B
:103CD00010B5044690F8593063B1012B11D0022B76
:103CE0000ED04FF0500383F31188BFF36F8FBFF3F3
:103CF0004F8FFEE7006B01F0CDF9204601F0CAF9C5
:103D000010BD01F0C7F9FBE70F4B1B68D3B110B52D
:103D100001F058FA0D4BDB68DC68201DFFF7C2F993
:103D20000B4A1368013B1360074A1368013B136099
:103D300001F06AFA2046FFF7CBFF034B1B68002B0C
:103D4000E6D110BD704700BFEC08002060090020DC
:103D5000E808002008B5FFF7D7FF074B1B68012BC9
:103D6000F9D94FF0E0234FF08052C3F8042DBFF390
:103D70004F8FBFF36F8FEEE78804002070B50446C5
:103D80000D46174B1E68174B18680430FFF78AF969
:103D9000B4F1FF3F0DD03444124B1B685C60A64267
:103DA00010D9114B18680F4B19680431FFF761F9EE
:103DB00070BD002DEFD00B4B196804310B48FFF795
:103DC0004DF9F5E70A4B1868064B19680431FFF7FF
:103DD00050F9084B1B68A342EAD9064B1C60E7E781
:103DE000740900207C040020840400204C09002079
:103DF000800400202809002030B587B00B9C7CB1DE
:103E00000C9DB5B15C250495049D5C2D1AD04FF036
:103E1000500383F31188BFF36F8FBFF34F8FFEE71B
:103E20004FF0500383F31188BFF36F8FBFF34F8FB1
:103E3000FEE74FF0500383F31188BFF36F8FBFF39A
:103E40004F8FFEE7049D0C9D2C63022485F859409A
:103E500000240394029505AC01940A9C0094FFF79A
:103E600059FE0C98FFF7DEFE059807B030BD2DE92E
:103E7000F04385B00746884614461E46900001F080
:103E80008BF800B381465C2001F086F80546B0B19E
:103E9000C0F83090E5B1002385F8593003930295BE
:103EA0000D9B01930C9B00933346224641463846B6
:103EB000FFF730FE2846FFF7B5FE012005E0484633
:103EC00001F0E8F8E6E74FF0FF3005B0BDE8F08319
:103ED0004FF0FF30F9E7000010B588B000240594DA
:103EE000069407AA06A905A800F0DCFF059B02932B
:103EF000069B019300942346079A18491848FFF738
:103F00007BFF184B186040B100F0FCFB012806D085
:103F1000B0F1FF3F18D008B010BD0020F6E74FF019
:103F2000500383F31188BFF36F8FBFF34F8F0E4B96
:103F30004FF0FF321A600D4B01221A600C4B002229
:103F40001A6001F0C9F9E6E74FF0500383F31188D6
:103F5000BFF36F8FBFF34F8FFEE700BF8C69000880
:103F6000553D0008240900202809002048090020A8
:103F700074090020024A136801331360704700BFC0
:103F8000F0080020014B1868704700BF740900203A
:103F9000F8B53A4B1B68002B69D1394B1D680135C8
:103FA0001D60C5B9374B1B681B6843B14FF0500308
:103FB00083F31188BFF36F8FBFF34F8FFEE7314A52
:103FC0001168314B186810601960304A136801336A
:103FD0001360FFF789FD2E4B1B68AB423DD90027CC
:103FE0002C4B1B68DB6A03EB83039A002A4B9B581C
:103FF000012B00D90127294B1B68002B3CD001273E
:104000003AE001271F4B1B681B6843B31D4B1B681D
:10401000DB68DC6863689D4226D3261D3046FFF7C7
:1040200041F8A36A1BB104F11800FFF73BF8E36AFB
:104030001B4A1268934201D9194A136003EB8303A8
:104040009A00314614481044FFF708F8E26A114B11
:104050001B68DB6A9A42D4D2D4E70027D2E70C4B24
:104060004FF0FF321A60BBE7094A1360B8E70D4A08
:1040700013680133136000273846F8BDF0080020AC
:104080007409002080040020840400202C090020F2
:10409000280900207C0400208804002078090020E2
:1040A000F80800203009002038B5354B1B6843B9AB
:1040B0004FF0500383F31188BFF36F8FBFF34F8F1F
:1040C000FEE701F07FF82E4B1A68013A1A601B6870
:1040D000002B4FD12B4B1B680BB900244BE0002465
:1040E000294B1B681BB3284BDB68DC6804F1180004
:1040F000FEF7D8FF251D2846FEF7D4FFE06A234BC4
:104100001B68984201D9214B186000EB80002946BA
:104110001F4B03EB8000FEF7A1FFE26A1D4B1B68FB
:10412000DB6A9A42DCD31C4B01221A60D8E70CB13F
:10413000FFF7DAFC194B1C6884B9174B1C68D4B123
:104140004FF0E0234FF08052C3F8042DBFF34F8FA0
:10415000BFF36F8F01240EE0013C07D0FFF718FF7B
:104160000028F9D00C4B01221A60F5E70B4B002216
:104170001A60E2E7002401F047F8204638BD00BF8E
:10418000F0080020E808002034090020F80800208A
:10419000880400207C0400207809002030090020D9
:1041A00010B5A8B10446104B1B6843B14FF0500343
:1041B00083F31188BFF36F8FBFF34F8FFEE7FFF7D5
:1041C000D9FE00212046FFF7D9FDFFF76DFF48B962
:1041D0004FF0E0234FF08052C3F8042DBFF34F8F10
:1041E000BFF36F8F10BD00BFF00800201F4B1B688E
:1041F0001BB11F4B01221A6070471D4B00221A6031
:104200001C4B1B6803EB83018A001B498A585AB96F
:104210000BB1013BF6E74FF0500383F31188BFF376
:104220006F8FBFF34F8FFEE703EB830082000A44DA
:1042300050684068506003EB830C4FEA8C020832F0
:10424000114488420BD003EB830291000A4A0A44CE
:104250005268D168094A1160064A13607047406885
:1042600062469100044A0A445060ECE7F0080020DE
:1042700078090020F8080020880400207C04002031
:1042800058B110B50C46094A11681831FEF7F1FE15
:1042900001212046FFF772FD10BD4FF0500383F35C
:1042A0001188BFF36F8FBFF34F8FFEE77C040020B0
:1042B00038B570B10D4614460A4A11681831FEF738
:1042C000CDFE0CB14FF0FF3521462846FFF756FDD5
:1042D00038BD4FF0500383F31188BFF36F8FBFF3E6
:1042E0004F8FFEE77C04002038B5C368DC6824B338
:1042F00004F118052846FEF7D5FE184B1B682BBBAA
:10430000251D2846FEF7CEFEE06A154B1B68984235
:1043100001D9134B186000EB80002946114B03EBC9
:104320008000FEF79BFEE26A0F4B1B68DB6A9A4235
:1043300011D901200D4B186038BD4FF0500383F3A5
:104340001188BFF36F8FBFF34F8FFEE729460848F0
:10435000FEF784FEE7E70020EEE700BFF00800204C
:10436000F8080020880400207C0400207809002040
:1043700034090020034B1B680360034B1B68436038
:10438000704700BF2C09002074090020D8B170B517
:104390000C46054601B300F015FF1B4B19686B680E
:1043A000C81A2268B2F1FF3F27D0184E3668D5F8F8
:1043B00000C0B44501D08B4224D9824215D80023D5
:1043C000236001241AE04FF0500383F31188BFF3F8
:1043D0006F8FBFF34F8FFEE74FF0500383F31188C9
:1043E000BFF36F8FBFF34F8FFEE75B1A1344236059
:1043F0002846FFF7BFFF002400E0002400F004FF80
:10440000204670BD0124F9E7740900202C09002022
:10441000014B01221A60704778090020014B18688F
:10442000704700BF7C040020054B1B6833B1054B6F
:104430001B680BB1002070470220704701207047B5
:1044400048090020F008002000283ED038B5044676
:10445000C36A204A1268D26A93422ED28269002A25
:1044600005DB1C4A1268D26AC2F1380282616169B6
:1044700003EB8303184A02EB8303994205D0154BE3
:104480001B68DB6AE362012038BD251D2846FEF764
:1044900009FE104B1B68D86AE062104B1B689842FB
:1044A00001D90E4B186000EB800029460A4B03EB44
:1044B0008000FEF7D3FD0120E6E7C26C054B1B68C8
:1044C000DB6A9A4203D30020DEE700207047012018
:1044D000DAE700BF7C04002088040020F8080020F0
:1044E00000283BD038B504461E4B1B68834208D0D9
:1044F0004FF0500383F31188BFF36F8FBFF34F8FDB
:10450000FEE7036D43B94FF0500383F31188BFF307
:104510006F8FBFF34F8FFEE7013B0365C16AC26C2B
:1045200091421DD00BB1002038BD051D2846FEF775
:10453000B9FDE06CE062C0F13803A3610A4B1B686F
:10454000984201D9084B186000EB80002946074BC0
:1045500003EB8000FEF782FD0120E5E700207047B5
:104560000020E1E77C040020F808002088040020F7
:10457000002846D038B50446036D43B94FF05003C8
:1045800083F31188BFF36F8FBFF34F8FFEE7C26CC9
:104590008A4200D20A46E16A914201D0012B00D042
:1045A00038BD184B1B68A34222D0E262A369002BDE
:1045B00002DBC2F13802A261626901EB8101124B98
:1045C00003EB81018A42EBD1251D2846FEF76AFDE7
:1045D000E06A0E4B1B68984201D90C4B186000EB47
:1045E00080002946084B03EB8000FEF737FDD7E734
:1045F0004FF0500383F31188BFF36F8FBFF34F8FDA
:10460000FEE770477C04002088040020F8080020A2
:10461000054B1B6823B1044B1A68136D01331365F6
:10462000014B1868704700BF7C040020064B1A68D5
:1046300013682BB90123036023B9D3681868704746
:104640000023F8E7002070477C09002008B541608E
:10465000006191420CD8D21A83699A4201D3012099
:1046600008BD011D094B1868FEF703FD0020F7E7A0
:104670009A4201D2994206D2011D054B1868FEF7F5
:10468000F8FC0020ECE70120EAE700BF80090020E9
:104690007C09002030B583B000F094FD114B1B68FD
:1046A0001BB100F0B1FD03B030BD0F4D2846FEF741
:1046B000C7FC0E4C2046FEF7C3FC0D4B1D600D4B96
:1046C0001C60002300930C4B0C4A10210A20FEF7BB
:1046D000F7FD044B18600028E3D00949FFF7C6F93D
:1046E000DFE700BFA00A0020240A0020380A0020CB
:1046F0007C09002080090020500A00208409002045
:104700009469000810B588B0FFF7C4FF124B1B680E
:10471000CBB100240594069407AA06A905A800F0C9
:10472000CDFB059B0293069B019302230093234636
:10473000079A0A490A48FFF75FFB0A4B186010B155
:10474000012008B010BD4FF0500383F31188BFF370
:104750006F8FBFF34F8FFEE7A00A00209C6900080F
:10476000694A0008A40A0020B8B19C4603461848CC
:10477000006858B300B585B00091019202930529F5
:104780001CDCFFF751FE022810D000231A466946B0
:104790000F480068FEF702FE15E04FF0500383F368
:1047A0001188BFF36F8FBFF34F8FFEE70023069A88
:1047B000694607480068FEF7F1FD04E00023624601
:1047C0006946FEF7F5FE05B05DF804FB0020704772
:1047D000A00A002070B582B01B4B1B681A6862B338
:1047E000DB681E68DC68251D2846FEF75BFC236A33
:1047F0002046984794F8283013F0040FECD0A369B2
:1048000033449E4207D26360246129460E4B1868E8
:10481000FEF72FFCE0E7002100910B4632462046D0
:10482000FFF7A2FF0028D7D14FF0500383F3118880
:10483000BFF36F8FBFF34F8FFEE7044A1068024942
:104840000860136002B070BD7C0900208009002060
:1048500038B50546FFF796FB0446074B1B688342B5
:1048600005D800232B60044B1C60204638BDFFF7A1
:10487000B1FF01232B60F6E74C0A002070B582B02F
:1048800006460D4617490968C968CC68201DFEF721
:1048900009FC94F828C01CF0040F08D12CF0010C7E
:1048A00084F828C0236A2046984702B070BDA169E9
:1048B00033462A4631442046FFF7C8FE0028F1D08F
:1048C000002100910B4632462046FFF74DFF00289D
:1048D000E8D14FF0500383F31188BFF36F8FBFF31C
:1048E0004F8FFEE77C09002070B582B006460C466B
:1048F000FFF740FB01A8FFF7ABFF019B33BB054669
:104900000CB9B04219D224B1124A12681268DAB94D
:1049100001242246711B104B1868FFF7BBF8FFF704
:10492000C3FBA8B94FF0E0234FF08052C3F8042D29
:10493000BFF34F8FBFF36F8F0AE0FFF7B5FB294638
:104940003046FFF79BFF03E01C46E2E7FFF7ACFBB6
:1049500002B070BD80090020A00A002010B588B008
:1049600002E0049B002B0FDA002204A93D4B1868DB
:10497000FEF785FE002873D0049B002BF1DA07991F
:104980000698059B9847ECE7069C636913B1201DC8
:10499000FEF788FB03A8FFF75BFF049B092BE3D816
:1049A000DFE803F00505053037500505303794F88A
:1049B000283043F0010384F82830059BA1690246A2
:1049C00019442046FFF742FE0028CDD0236A204636
:1049D000984794F8283013F0040FC5D0A26900213D
:1049E00000910B46059802442046FFF7BDFE0028C3
:1049F000BAD14FF0500383F31188BFF36F8FBFF329
:104A00004F8FFEE794F8283023F0010384F8283014
:104A1000AAE794F8283043F0010384F82830059978
:104A2000A16131B10346024601442046FFF70EFE64
:104A30009AE74FF0500383F31188BFF36F8FBFF3F2
:104A40004F8FFEE794F8283013F0020F04D023F0C4
:104A5000010384F8283087E7204600F01BFB83E73A
:104A600008B010BDA00A002000B583B001A8FFF770
:104A7000DDFD0199FFF738FFFFF770FFF6E708B596
:104A80004FF0E0231B69FFF7CFFC012800D108BDE0
:104A900000F0F8FBFBE70000EFF305832BB9064BB2
:104AA000186828B901221A6070476FF00500704736
:104AB0004FF0FF30704700BF040D0020EFF3058377
:104AC00073B90A4B1B68012B0DD110B50024084B9C
:104AD000DC77064B02221A60FFF7FEF9204610BD74
:104AE0006FF0050070474FF0FF307047040D002055
:104AF00000ED00E0F0B587B000240594EFF30584E5
:104B000074BB68B322B31568936903B918235C1E9C
:104B1000372C49D8546814F0010F47D156696EB14B
:104B20004FEA960C94682CB1D7685B2F02D91769AD
:104B300007B1C6B92CB14FF0FF340EE04FF0800C36
:104B4000F0E7D4688CB9146994B14FF0FF3404E0F5
:104B50001546002418234FF0800C012C0AD0ACB16C
:104B6000059807B0F0BD0124F7E74FF0FF34F4E7F4
:104B70000024F2E7146992680292019400930B46B4
:104B800062462946FFF738F90590E9E705AA019240
:104B900000930B461FFA8CF22946FFF768F90128AB
:104BA000DED000230593DBE70020DAE70020D8E71A
:104BB00008B5EFF3058333B908B9002008BDFFF746
:104BC000EFFA0020FAE76FF00500F7E770B5EFF3B2
:104BD0000583002B3FD1044600B1436813F0010662
:104BE00000D0012613F0080F38D14CB3A16811B1E1
:104BF000E3684F2B19D899B14FF0FF334BBB1EB36D
:104C00000420FEF79BFC05462DB104B12468214623
:104C10002846FEF72BFFFDB1F6B145F001051BE07C
:104C2000E3687BB14FF0FF33E8E726B10420FEF7DD
:104C300090FC0546E8E70120FEF78BFC0546E3E71C
:104C40000023DBE70023D9E70120FEF777FC0546C8
:104C5000DAE70025DFE70025284670BD0025FBE7E1
:104C6000EFF30582C2B910B503460C4620F00100EF
:104C700003F0010398B13BB1FEF783FE012811D088
:104C800094B16FF001000EE0FEF7A8FD01280ED0F0
:104C90007CB16FF0010006E06FF0050070476FF027
:104CA000030000E0002010BD6FF00200FBE70020D1
:104CB000F9E76FF00200F6E7EFF30582B2B908B545
:104CC000034620F0010003F0010390B12BB1FEF781
:104CD0004FFC012810D1002008BD00231A461946B8
:104CE000FEF75CFB01280AD10020F5E76FF0050014
:104CF00070476FF00300EFE76FF00200ECE76FF032
:104D00000200E9E730B583B0EFF30583002B3BD118
:104D1000144600283CD000293CD072B3936853B1AC
:104D2000D2684F2A07D922692AB101FB00F5D4F8CD
:104D300014C0AC451BD273B14FF0FF3363BB0022EC
:104D4000FEF708FB054605B304B124682146284652
:104D5000FEF78CFE19E0E3688BB9236913B14FF0BD
:104D6000FF33EBE763696BB14FF0FF33E6E70025F4
:104D70000095FEF7A5FA0546E5E70023DEE74FF0CC
:104D8000FF33DBE70023D9E70025284603B030BD19
:104D90000025FAE70025F8E70025F6E710B582B010
:104DA0001C46EFF30583C3B118B329B33CBB002302
:104DB000019301AAFEF7FCFB012823D1019850B111
:104DC0004FF0E0234FF08052C3F8042DBFF34F8F14
:104DD000BFF36F8F002002B010BDB0B1C1B100238E
:104DE0002246FEF7DBFA012815D0B4B16FF00100BE
:104DF000F1E76FF00300EEE76FF00300EBE76FF011
:104E00000300E8E76FF00200E5E76FF00300E2E778
:104E10006FF00300DFE70020DDE76FF00200DAE764
:104E200010B582B01C46EFF30583C3B110B321B3B4
:104E300034BB0023019301AAFEF7C3FD012822D150
:104E4000019850B14FF0E0234FF08052C3F8042D89
:104E5000BFF34F8FBFF36F8F002002B010BDA8B11A
:104E6000B9B12246FEF70BFC012815D0B4B16FF0A2
:104E70000100F2E76FF00300EFE76FF00300ECE7EB
:104E80006FF00300E9E76FF00200E6E76FF0030060
:104E9000E3E76FF00300E0E70020DEE76FF00200D9
:104EA000DBE70000034B0360034B0B6080231360C0
:104EB000704700BFA80C0020A80A0020034B036025
:104EC000034B0B604FF48073136070470811002090
:104ED000080D0020124A12F0070F1ED0D11D21F03C
:104EE0000701C1F5406313440A460E4802600021E1
:104EF00041601344083B23F007030B4803605960EB
:104F00001960991A51601360084B1960084B1960B9
:104F1000084B4FF000421A6070474FF44063E4E7DB
:104F2000681100207C1D002064110020701D0020ED
:104F30006C1D0020681D0020154B1A461B6883421B
:104F4000FBD3516802EB010C844509D0416800EBAA
:104F5000010C634509D00360904218D0106070477F
:104F60004068014451601046F0E710B4094C2468D1
:104F7000A3420AD05B681944416013681B68036050
:104F8000904200D0106010BC70470460F8E7704792
:104F90007C1D00206411002070B50546FEF7EAFF75
:104FA000364B1B68A3B1364B1B681D424ED135B141
:104FB000083515F0070F02D025F007050835002D3C
:104FC00046D0304B1B68AB4251D32F4A146804E0E3
:104FD000FFF780FFE7E722461C466368AB4202D238
:104FE0002368002BF7D1254B1B68A34241D01668DC
:104FF00008362368136063685B1B102B10D9601997
:1050000010F0070F08D04FF0500383F31188BFF35F
:105010006F8FBFF34F8FFEE743606560FFF78CFF34
:10502000626818490B689B1A0B60184909688B4223
:1050300001D216490B60124B1B68134363600023B7
:105040002360134A13680133136002E0002600E076
:105050000026FFF729F816F0070F0CD04FF0500389
:1050600083F31188BFF36F8FBFF34F8FFEE70026E6
:10507000EFE70026EDE7304670BD00BF6411002069
:10508000681D00206C1D00207C1D0020701D00206C
:10509000741D0020002834D038B50446A0F108055E
:1050A00050F8043C174A1268134208D14FF05003DD
:1050B00083F31188BFF36F8FBFF34F8FFEE750F874
:1050C000081C41B14FF0500383F31188BFF36F8F79
:1050D000BFF34F8FFEE723EA020340F8043CFEF7DC
:1050E00049FF54F8041C084A13680B44136028460F
:1050F000FFF722FF054A136801331360FEF7D4FF60
:1051000038BD7047681D00206C1D0020781D0020F0
:1051100082B0002301930D4B1B68B3F1FF3F08D011
:105120004FF0500383F31188BFF36F8FBFF34F8F9E
:10513000FEE74FF0500383F31188BFF36F8FBFF387
:105140004F8F019B002BFCD002B0704770000020F5
:1051500006480068006880F3088862B661B6BFF34D
:105160004F8FBFF36F8F00DF00BF000008ED00E03E
:105170004FF0807340F8043C21F0010140F8081C16
:10518000034B40F80C3C40F8202C4038704700BFDF
:1051900011510008000000000000000000000000A5
:1051A000074B19680868B0E8F00F80F30988BFF36F
:1051B0006F8F4FF0000080F311884EF00D0E704796
:1051C0007C0400204FF0500383F31188BFF36F8FEE
:1051D000BFF34F8F0B4A136801331360012B00D0CC
:1051E00070474FF0E023D3F8043D13F0FF0FF7D0E2
:1051F0004FF0500383F31188BFF36F8FBFF34F8FCE
:10520000FEE700BF70000020094B1B6843B94FF058
:10521000500383F31188BFF36F8FBFF34F8FFEE707
:10522000013B034A13600BB983F31188704700BF39
:1052300070000020000000000000000000000000DE
:10524000EFF30980BFF36F8F0D4B1A6820E9F00F61
:1052500010602DE908404FF0500080F31188FEF7F0
:10526000C5FF4FF0000080F31188BDE808401968C1
:105270000868B0E8F00F80F30988BFF36F8F7047BC
:105280007C04002008B54FF0500383F31188BFF36E
:105290006F8FBFF34F8FFEF77BFE28B14FF0E023F7
:1052A0004FF08052C3F8042D002383F3118808BD0A
:1052B0004FF0E022002313619361054B1B68054901
:1052C000A1FB03139B09013B536107231361704743
:1052D0006C000020D34D621010B582B02A4B1A78B2
:1052E000D2B20192FF221A701B78DBB28DF8033024
:1052F0009DF8033003F05003244A1370244B072217
:105300001A6009E0224A1368013B13609DF80330DC
:105310005B00DBB28DF803309DF8033013F0800F93
:10532000F0D11B4B1B68032B08D04FF0500383F3C5
:105330001188BFF36F8FBFF34F8FFEE71B02144A34
:10534000136003F4E0631360019BDBB20E4A137039
:105350004FF0E023D3F8202D42F47002C3F8202D43
:10536000D3F8202D42F07042C3F8202DFFF7A0FFA4
:105370000024084B1C60FFF7EBFEFEF737FFFFF73A
:10538000C7FE204602B010BD00E400E0841D0020EE
:10539000881D002070000020EFF305830F2B0FD92C
:1053A000114A9B5CDBB2114A12789A4208D94FF03D
:1053B000500383F31188BFF36F8FBFF34F8FFEE766
:1053C0004FF0E023D3F80C3D03F4E063084A126881
:1053D000934208D94FF0500383F31188BFF36F8FC6
:1053E000BFF34F8FFEE77047F0E300E0841D00201D
:1053F000881D002010B503460C4A0D490D48006871
:1054000040B10C4800680344521A934206D8094A36
:10541000136010BD0748084C0460F2E7FAF7BCFEC1
:105420000C2303604FF0FF30F3E700BF0050002073
:10543000000400008C1D0020F828002008B50B484F
:105440000B4B03600B4B436000238360C3604FF43E
:105450008042026143618361C361036200F0D0F95D
:1054600000B908BDFBF7FEFDFBE700BF901D002063
:1054700000580040801A060010B586B00023029341
:105480000393049305930268114B9A4201D006B02E
:1054900010BD104CA36943F00803A361A36903F096
:1054A00008030093009B4FF440630293122303937D
:1054B0000323059302A90848FCF704FEE36943F4BB
:1054C0008003E361E36903F480030193019BDEE75A
:1054D0000058004000100240000C014003685A6967
:1054E00012F4806F01D1002070476FF480625A611E
:1054F00000230363202280F83D2080F83E30026CB8
:1055000042F00402026480F83C30012070472DE92B
:10551000F04106460C46174698463BE0FCF78AFAEF
:10552000069BC01A404502D8B8F1000F32D1012DB8
:1055300018D033689B6924EA03039BB2B3FA83F360
:105540005B099F4226D100233363202286F83D2049
:1055500086F83E30326C42F02002326486F83C30ED
:10556000012027E033685B6924EA03039BB2B3FAA6
:1055700083F35B09E5E733685B6924EA030C1FFAF0
:105580008CFCBCFA8CFC4FEA5C1C674511D1B8F16D
:10559000FF3FC3D1C4F30745012DECD033689B69AD
:1055A00024EA030C1FFA8CFCBCFA8CFC4FEA5C1C4E
:1055B000EBE70020BDE8F0812DE9F84305460E46F3
:1055C0009046994653E01A6842F400721A602B68BC
:1055D0006FF480625A6100232B63202285F83D20FE
:1055E00085F83E302A6C42F004022A6485F83C308B
:1055F00001204AE0FCF71EFAA0EB0900404502D862
:10560000B8F1000F33D1012F17D02B689B6926EA20
:1056100003039BB2003B18BF012343B300232B635A
:10562000202285F83D2085F83E302A6C42F0200289
:105630002A6485F83C30012027E02B685B6926EA64
:1056400003039BB2003B18BF0123E6E72B689C696C
:1056500026EA0404A4B2003C18BF0124A4B12B68BC
:105660005A6912F4806FAED1B8F1FF3FC2D1C6F3D0
:105670000747012FEAD12B685C6926EA0404A4B22B
:10568000003C18BF0124E9E70020BDE8F8830000D2
:10569000F0B583B004460D4616461F46C36A082B74
:1056A0000DD0012B0BD013F5803F08D0036B122BCC
:1056B0000AD10268136843F48073136004E022681F
:1056C000136843F4807313600097334600224FF051
:1056D00001112046FFF71BFF80B92369B3F5804F06
:1056E00016D1236805F0FE051D613B46324613497D
:1056F0002046FFF761FFF8B903B0F0BD23681B68CF
:1057000013F4807F02D04FF4007323640320F3E787
:10571000EB11226803F0060343F0F00313613B46EC
:10572000324607492046FFF747FF18B92368EDB214
:105730001D61DAE70120DFE70120DDE7020001005B
:105740000800010070B504460D46164623685B69E3
:1057500013F0800F21D12046FFF7C0FEF8B9B5F154
:10576000FF3FF3D0FCF766F9801BA84201D8002D5B
:10577000ECD123685B6913F0800FE7D1002323632A
:10578000202284F83D2084F83E30226C42F0200232
:10579000226484F83C30012000E0002070BD01202C
:1057A000FCE770B504460D46164623685B6913F0A6
:1057B000040F21D12046FFF791FEF8B9B5F1FF3F64
:1057C000F3D0FCF737F9801BA84201D8002DECD1AB
:1057D00023685B6913F0040FE7D1002323632022C1
:1057E00084F83D2084F83E30226C42F0200222648E
:1057F00084F83C30012000E0002070BD0120FCE76F
:10580000002800F0CC8070B5044690F83D30002BA5
:1058100077D0242384F83D302268136823F00103F5
:1058200013602268136843F400431360226813680E
:1058300023F400431360FCF707FC62685A4B9A425A
:1058400064D85A4B98428CBF00230123002B40F0B0
:10585000A8805749A1FB00318B0C25686A6822F0AB
:105860003F0242EA91426A6021680A6A22F03F02DE
:1058700066684D4DAE424FD8013313430B62216829
:10588000CA6922F44F4222F0FF026668464B9E42EC
:105890004CD8431E7600B3FBF6F3013340F6FC70A0
:1058A000034278D0C3F30B031343CB6121680B6829
:1058B00023F0C003E269206A024313430B602168AE
:1058C0008B6823F4034323F0FF032269E06802435B
:1058D00013438B602168CB6823F0FF036269A069E2
:1058E00002431343CB602268136843F00103136043
:1058F00000202064202384F83D30206384F83E009B
:1059000070BD80F83C30FFF7B7FD82E7294B984225
:105910008CBF0023012399E74FF4967505FB03F331
:10592000254DA5FB03539B090133A6E7A368BBB92B
:10593000451E06EB460CB5FBFCF50135C5F30B0522
:10594000B5FA85F56D0945BBC3B9013806EB4603C9
:10595000B0FBF3F30133C3F30B0343F40043A3E7BA
:10596000451E06EB860C0CEB8C0CB5FBFCF50135EB
:10597000C5F30B05B5FA85F56D09E4E7013806EBCB
:10598000860303EB8303B0FBF3F30133C3F30B0391
:1059900043F4404388E7042386E7012384E701209A
:1059A00070470120ACE700BFA08601007F841E0085
:1059B00083DE1B43FF083D00D34D62102DE9F04309
:1059C00085B004460F46914698460C9EFCF732F887
:1059D000054694F83D00C0B2202804D0022738467E
:1059E00005B0BDE8F0830095192301224F492046F8
:1059F000FFF78DFD002840F0928094F83C30012B99
:105A000000F08F80012384F83C3023681A6812F07C
:105A1000010F03D11A6842F001021A60226813686C
:105A200023F400631360212384F83D30102384F8AD
:105A30003E3000232364C4F82490A4F82A80638DA8
:105A400023853B4BE3622B46324639462046FFF71F
:105A50001FFE0746002866D10023039323685A6976
:105A600003929B690393039B11E0236C042B01D0E9
:105A70000127B4E72268136843F400731360F7E763
:105A80002A4631462046FFF78CFE00282ED1238D72
:105A9000002B36D02A4631462046FFF753FE002819
:105AA000E3D1626A236812781A61606A431C6362F8
:105AB000618D89B2013989B26185238D013B9BB229
:105AC00023852268516911F0040FD9D0002BD7D05B
:105AD00043781361636A01336362638D9BB2013B58
